:020000040800F2
:10000000680F0020A50100088903000837030008D5
:1000100085030008ED0100084911000800000000F8
:100020000000000000000000000000006D0F00084C
:10003000F10100080000000043010008C1100008A1
:10004000BF010008BF010008BF010008BF01000890
:10005000BF010008BF010008BF010008BF01000880
:10006000BF010008BF010008BF010008BF01000870
:10007000BF010008BF010008BF010008BF01000860
:10008000BF010008BF010008BF010008BF01000850
:10009000BF010008BF010008BF010008BF01000840
:1000A000BF010008BF010008BF010008BF01000830
:1000B000BF010008BF010008BF010008BF01000820
:1000C000BF010008BF010008BF010008BF01000810
:1000D000BF010008BF010008BF010008BF01000800
:1000E000BF010008BF010008BF010008DFF80CD005
:1000F00000F06AF8004800476D110008680F002002
:10010000EFF3108072B6704780F3108870471D4877
:100110004FF0FF010170002080F309881A48012187
:1001200001701A484FF08051016062B6FEE717482F
:100130004FF080510160704714484FF080510160CA
:10014000704772B6EFF3098028B1203880E8F00FCD
:100150000F490968086000B50E4880475DF804EB58
:100160000D480E490A78027009480D490A68026074
:10017000106890E8F00F203080F309884EF0040EEC
:1001800062B6704722ED00E01A00002004ED00E0A6
:1001900020000020A5080008130000201400002003
:1001A000280000200648804706480047FEE7FEE793
:1001B000FEE7FEE7FEE7FEE7FEE7FEE7FEE7FEE717
:1001C000E9100008ED000008064C074D06E0E06865
:1001D00040F0010394E8070098471034AC42F6D38E
:1001E000FFF788FF94120008B412000800BFFEE772
:1001F0007047000008B54FF48070ADF80000032090
:100200008DF8020010208DF803006946014800F0C7
:1002100003F808BD000C01402DE9F041024600251D
:100220000026002000230024002791F803C00CF0D2
:100230000F0591F803C00CF0100CBCF1000F03D0B7
:1002400091F802C04CEA050591F800C0BCF1000F1E
:1002500031D0146800202BE04FF0010C0CFA00F3B1
:10026000B1F800C00CEA03069E4220D183004FF093
:100270000F0C0CFA03F7BC4305FA03FC4CEA040428
:1002800091F803C0BCF1280F06D14FF0010C0CFA15
:1002900000FCC2F814C00AE091F803C0BCF1480F9A
:1002A00005D14FF0010C0CFA00FCC2F810C0401C44
:1002B0000828D1D31460B1F800C0BCF1FF0F34DDC1
:1002C000546800202EE000F1080C4FF0010808FAF5
:1002D0000CF3B1F800C00CEA03069E4221D1830062
:1002E0004FF00F0C0CFA03F7BC4305FA03FC4CEA81
:1002F000040491F803C0BCF1280F05D100F1080CEB
:1003000008FA0CF8C2F8148091F803C0BCF1480F49
:1003100007D100F1080C4FF0010808FA0CF8C2F8F8
:100320001080401C0828CED35460BDE8F0814161A4
:1003300070470161704700BFFEE710B500F010FE86
:1003400000F08AFEFFF756FF10BD000017E04FF4E3
:1003500080710B48FFF7EBFF4FF4FA730022114650
:10036000104600F0D9FA4FF480710548FFF7E1FF1D
:100370004FF4FA7300221146104600F0CDFAE6E77A
:10038000000C014000BFFEE7704710B500F00FF809
:1003900000F086FB00F0AEFB00F0D0FB00F07FFB2E
:1003A00000F000FC00F026FC00F002F810BD7047E1
:1003B0007047000010B500241A480078012830D199
:1003C000FFF79EFE044618480078002804DD164812
:1003D0000078401E1449087013480078F0B913489B
:1003E0000078D8B900F072FC1148007811490978FA
:1003F000884213D010480E49097850F821000F495F
:10040000086008460068806A401C096888620C48D9
:100410000068401C0A490860FFF78EFE2046FFF77F
:1004200073FE10BD1A0000201100002012000020F1
:1004300014000020130000208C050020280000205C
:100440000000002010B50B48007890B900F03EFC89
:10045000094800780949087009480749097850F89F
:100460002100084908600846006807490860FFF74E
:100470004EFE10BD1A0000201400002013000020C2
:100480008C0500202800002020000020704700007C
:100490002DE9FE4F06460F4690461C464FF00009D8
:1004A0001F2C02DD2A20BDE8FE8FFFF729FE8146C2
:1004B0001F480078002804DD4846FFF725FE3C2051
:1004C000F1E71C4850F8240060BB0120194941F8AD
:1004D00024004846FFF718FE0023424639463046BE
:1004E00000F036F982460020009001900346024653
:1004F00051460290204600F017FC054635B90E48DB
:10050000007801280CD100F0A7FB09E0FFF7F8FD07
:1005100081460020074941F824004846FFF7F4FDD2
:100520002846C0E74846FFF7EFFD2820BBE700005C
:10053000110000208C0500201A0000202DE9F04F4A
:1005400085B081468A4693461C46DDE90F78129DA8
:10055000002003901F2C03DD2A2005B0BDE8F08F9A
:10056000FFF7CEFD039022480078002804DD0398B1
:10057000FFF7CAFD3C20F0E71E4850F8240088BB76
:1005800001201C4941F824000398FFF7BDFD2A46CD
:100590004146384600F0C6FC2B465A46514648466E
:1005A00000F0D6F804901198CDE9008002953A4603
:1005B00020460E9B049900F0B7FB064636B90E485C
:1005C000007801280CD100F047FB09E0FFF798FD07
:1005D00003900020074941F824000398FFF794FD99
:1005E0003046BAE7FFE70398FFF78EFD2820B4E70F
:1005F000110000208C0500201A0000207047704771
:100600002DE9F04705460F4614464FF000090CB996
:10061000BDE8F0871F2D04DDFF2D02D02A202070B9
:10062000F6E717B90C202070F2E71D480078002883
:1006300002DD12202070EBE7FFF762FD8146FF2DFF
:1006400003D11848006890F82050174850F82560EA
:100650002EB94846FFF758FD43202070D8E7012EF9
:1006600005D14846FFF750FD43202070D0E73846BB
:1006700000F050FB8046B8F10F0F05DD4846FFF74C
:1006800043FD41202070C3E7394606F13C0000F0ED
:1006900033FB4846FFF738FD0020207000BFB7E766
:1006A00011000020200000208C0500207047000071
:1006B0002DE9F04706460C464FF0000A1F2E04DDD8
:1006C000FF2E02D02A20BDE8F0870CB90920FAE7F6
:1006D000002020606060FFF713FD8246FF2E03D1EB
:1006E0001948006890F82060184850F8265025B93D
:1006F0005046FFF709FD4320E5E7012D04D15046A0
:10070000FFF702FD4320DEE7287C00F0010020B95E
:100710005046FFF7F9FC4520D5E70027D5F80C90A7
:10072000D5F808805046FFF7EFFC00E07F1C58F832
:10073000041B0029FAD0B8002060A9EB0700800054
:1007400060600020BFE70000200000208C05002032
:1007500070B5044610464FF080750560051F2846A9
:100760002C606FF00106051F28462E604FF01236F0
:10077000051F28462E604FF00336051F28462E60C1
:100780004FF00236051F28462E607610051F2846BA
:100790002E60051F284629604FF01136051F284698
:1007A0002E604FF01036051F28462E604FF0093698
:1007B000051F28462E604FF00836051F28462E607C
:1007C0004FF00736051F28462E604FF00636051FEE
:1007D00028462E604FF00536051F28462E604FF044
:1007E0000436051F28462E6070BD00002DE9F0413B
:1007F00005464FF000081F2D02D14720BDE8F081CB
:100800001F2D03DBFF2D01D02A20F7E7FFF778FC2F
:100810008046FF2D05D11F48006890F82050012622
:1008200008E01C48006890F82000A84201D1012689
:1008300000E00026184850F8254024B94046FFF74C
:1008400063FC4820DAE7012C04D14046FFF75CFC4A
:100850004320D3E794F822701048C05D94F8231029
:1008600088430E49C8550846C05D30B994F8241035
:100870000B48007888430A490870A07F40F00800C0
:10088000A0774046FFF740FC012E01D100F0E4F9CB
:100890000020B3E7200000208C0500201600002077
:1008A000150000207047000070B505460026164868
:1008B0000078002800DD70BD002D23DDFFF720FC4F
:1008C00006461248006890F822401148005D0F4922
:1008D000096891F8231088430D4908550846005DC2
:1008E00040B90A48006890F824100A480078884304
:1008F000084908700548006885833046FFF704FC06
:1009000000F0AAF900BFD6E7110000202000002067
:1009100016000020150000202DE9F04780460D4606
:1009200016461C4624480078002802DD5520BDE804
:10093000F087B8F1000F04D11DB916B90CB95420D5
:10094000F5E73B2D01DD5120F1E73B2E01DD522083
:10095000EDE7B4F57A7F01DB5320E8E74FF47A70D6
:1009600060434FF47A71B0FBF1F14FF4616008FB22
:1009700000F0C5EB051200EB8200304400EB4002B2
:10098000C2EBC01001EBC0074FEA1749BFB23846AF
:10099000FFF78AFF0BE04FF40040FFF785FF4FF4AD
:1009A0000040FFF781FFA9F101001FFA80F9B9F1BA
:1009B000000FF0DC0020BAE71100002070B500261F
:1009C00000F06CF8FFF79CFB06462E480068401CC0
:1009D0002C4908603046FFF797FB2B480078012828
:1009E0004ED12A48007820B1012804D0022809D12C
:1009F00003E001250BE0002509E001250120234942
:100A0000087004E0012500202049087000BF00BFE5
:100A100005B970BD1E4804682EE0FFF771FB06465D
:100A2000A08B28B3A08B401E80B2A08300BBA07F08
:100A300000F0370030B1A07F20F03700A077012010
:100A4000E07701E00020E077A07F00F0080078B9AF
:100A50002234A0780F49097808430E49087020789D
:100A60000D49085C6178084314F822190A4A505469
:100A700064693046FFF748FB94F820001F28CCD16A
:100A800000BFC6E7340000201A000020300000201C
:100A90002C00002015000020160000207047704731
:100AA00000200A4908600A4908700A4908700A4982
:100AB00008700A4908700A4908600A4908600A492A
:100AC00008600A4908600A4908707047340000202D
:100AD00011000020120000201B0000201A0000203E
:100AE000000000201C0000200C0000200800002056
:100AF0001000002000220B4B1A700B49002004E06C
:100B0000002201F8012B421CD0B20428F8DB00229D
:100B1000064B1A70064B1A70064B1A60064B1A6089
:100B20007047000015000020160000201300002070
:100B300014000020280000202000002030B54FF4D1
:100B4000AB61144800F07EF88021134800F07AF879
:100B5000104B03F14C0500240AE05D613F2083F84F
:100B60003C0000213D20C1544C334C35601CC4B2C4
:100B7000112CF2D3002058613F2083F83C00002163
:100B80003D20C1540020054908600248044908601E
:100B900030BD00000C0600208C0500202C00002039
:100BA0002400002000B587B00320002180220A4BDA
:100BB000CDE90132CDE903104FF6FF701F23074A3C
:100BC00000900748FFF7BAFC06AA06A11F20FFF70E
:100BD00017FD07B000BD00008C0300208805002031
:100BE0003D0E000875432F4F532D49492049646C31
:100BF0006500000000B587B00320002180220A4B69
:100C0000CDE90132CDE903104FF6FE701E23074AED
:100C100000900748FFF792FC06AA06A11E20FFF7E6
:100C2000EFFC07B000BD00008C010020880300200D
:100C3000610E000875432F4F532D494920537461AD
:100C40007400000004E0002200F8012B4A1E91B25B
:100C50000029F8DC7047000010B50024FFF750FAB7
:100C6000044613480078F0B912480078D8B900F06B
:100C70002DF81148007811490978884213D010489E
:100C80000D49097850F821000E49086008460068AF
:100C9000806A401C096888620B480068401C0A4949
:100CA0000860FFF744FA2046FFF72EFA10BD000057
:100CB000110000201200002014000020130000206A
:100CC0008C05002028000020000000200649074A6B
:100CD0001278885C0649095C034A515C01EBC0014B
:100CE000044A11707047000094110008150000209C
:100CF00016000020140000200246002005E011F834
:100D0000013B02F8013B431CD8B20B78002BF6D113
:100D1000137070470146002002E0491C421CD0B20B
:100D20000A78002AF9D170472DE9F84F05460E469A
:100D300017469846DDE90BABDDF8289000200090BF
:100D4000FFF7DEF9009037480468002C65D00834BE
:100D50003449E06808600098FFF7D6F944F8086C59
:100D600025760020A075E075A08244F804ACC4F894
:100D700004902760A4F808B0A4F80A806077E8100F
:100D8000A07605F007006076A17E012088402077DC
:100D9000617E01208840E07600202062A0626062CF
:100DA000E06220633F2084F83400083C00213D20AD
:100DB00001552046FFF76AFB2046FFF71FFCFFF7AF
:100DC0009FF90090184840F8254018480068606175
:100DD0000020A0611548006810B1144800688461C3
:100DE000124804602234A078114909780843104958
:100DF000087020780F49085C6178084314F82219BC
:100E00000C4A50540C480078401C0B49087000985C
:100E1000FFF77AF90020BDE8F88F0098FFF774F922
:100E20004220F8E7240000208C0500202C00002040
:100E300015000020160000201B000020002400BF29
:100E4000FFF75EF9044605480068401C0349086046
:100E50002046FFF759F9FFF7D2FBF1E71C0000200D
:100E6000002402E0C820FFF71FFD1A480078002880
:100E7000F8D0194800686421B0FBF1F01649086009
:100E80000846006828B9002014490870FF20FFF7C1
:100E9000ADFC00BFFFF734F9044611480068114962
:100EA000086000200E4908602046FFF72DF90D4824
:100EB000006809490968B0FBF1F0C0F16400074916
:100EC0000870FFF7F3FB00F00FF86420FFF7ECFC6D
:100ED000E0E70000100000200800002004000020CF
:100EE0001C0000200C0000207CB5002514E06946A1
:100EF0002846FFF7DDFB064666B9094850F825404D
:100F000044B1012C06D0D4E9020100EB81006063FA
:100F10000198A063681CC5B21F2DE8DD7CBD0000F0
:100F20008C05002002F0010343B102F002032BB153
:100F300002E0491E002308C00029FAD170470000D2
:100F400029B1064A92690243044B9A6104E0034ABC
:100F500092698243014B9A61704700000010024081
:100F600010B501210820FFF7EBFF10BD704710B549
:100F700000F002F810BD00000CB5002001900090B8
:100F80003348006840F480303149086000BF304881
:100F9000006800F4003000900198401C0190009817
:100FA00018B90198B0F5A06FF1D12948006800F494
:100FB000003010B10120009001E000200090009866
:100FC000012843D12348006840F0100021490860FF
:100FD0000846006820F0030008600846006840F0FA
:100FE000020008601A48406819494860084640688D
:100FF00048600846406840F48060486008464068A1
:1010000020F47C1048600846406840F4E8104860CE
:101010000846006840F08070086000BF0C48006817
:1010200000F000700028F9D00948406820F0030063
:10103000074948600846406840F00200486000BF29
:101040000348406800F00C000828F9D10CBD0000EE
:10105000001002400020024030B5164800684FF4EE
:101060007A72B0FBF2F1481EB0F1807F01D301200B
:101070001BE0481E4FF0E022506150170F2200285D
:1010800004DB13071C0E0C4B1C5406E013071D0E4B
:101090000A4B00F00F04241F1D5500BF00204FF025
:1010A000E022906107201061002008B100BFFEE738
:1010B00030BD00003800002000E400E018ED00E042
:1010C00010B5FFF71DF8044606480078401C054996
:1010D00008702046FFF718F8FFF770FCFFF76AF971
:1010E00010BD00001100002010B51348006840F04A
:1010F00001001149086008464068104908400E493F
:101100004860084600680E4908400B4908600846D8
:10111000006820F4802008600846406820F4FE0043
:1011200048604FF41F008860FFF721FF4FF0006018
:101130000449086010BD0000001002400000FFF8E4
:10114000FFFFF6FE08ED00E000BFFEE702E008C882
:10115000121F08C1002AFAD170477047002001E031
:1011600001C1121F002AFBD17047000010B5FFF724
:10117000E4F8FFF70AF90423044A00210448FFF7C2
:1011800087F9FFF75FF9002010BD000088010020FB
:101190004D030008000001000200010003000100EF
:1011A0000200010004000100020001000300010030
:1011B000020001000500010002000100030001001F
:1011C0000200010004000100020001000300010010
:1011D00002000100060001000200010003000100FE
:1011E00002000100040001000200010003000100F0
:1011F00002000100050001000200010003000100DF
:1012000002000100040001000200010003000100CF
:1012100002000100070001000200010003000100BC
:1012200002000100040001000200010003000100AF
:10123000020001000500010002000100030001009E
:10124000020001000400010002000100030001008F
:10125000020001000600010002000100030001007D
:10126000020001000400010002000100030001006F
:10127000020001000500010002000100030001005E
:10128000020001000400010002000100030001004F
:1012900002000100B4120008000000204C00000011
:1012A0004C110008001300084C0000201C0F000027
:1012B0005C110008000000000000000000000000B9
:1012C000000000000000000000000000000000001E
:1012D000000000000000000000000000000000000E
:1012E00000000000000000000000000000A24A040E
:1012F00000000000000000000102030406070809C6
:04000005080001A549
:00000001FF
